{
    "_format": "hh-sol-artifact-1",
    "contractName": "LandRegistry",
    "sourceName": "contracts/LandRegistry.sol",
    "abi": [
        {
            "inputs": [],
            "stateMutability": "nonpayable",
            "type": "constructor"
        },
        {
            "inputs": [
                {
                    "internalType": "address",
                    "name": "sender",
                    "type": "address"
                },
                {
                    "internalType": "uint256",
                    "name": "tokenId",
                    "type": "uint256"
                },
                {
                    "internalType": "address",
                    "name": "owner",
                    "type": "address"
                }
            ],
            "name": "ERC721IncorrectOwner",
            "type": "error"
        },
        {
            "inputs": [
                {
                    "internalType": "address",
                    "name": "operator",
                    "type": "address"
                },
                {
                    "internalType": "uint256",
                    "name": "tokenId",
                    "type": "uint256"
                }
            ],
            "name": "ERC721InsufficientApproval",
            "type": "error"
        },
        {
            "inputs": [
                {
                    "internalType": "address",
                    "name": "approver",
                    "type": "address"
                }
            ],
            "name": "ERC721InvalidApprover",
            "type": "error"
        },
        {
            "inputs": [
                {
                    "internalType": "address",
                    "name": "operator",
                    "type": "address"
                }
            ],
            "name": "ERC721InvalidOperator",
            "type": "error"
        },
        {
            "inputs": [
                {
                    "internalType": "address",
                    "name": "owner",
                    "type": "address"
                }
            ],
            "name": "ERC721InvalidOwner",
            "type": "error"
        },
        {
            "inputs": [
                {
                    "internalType": "address",
                    "name": "receiver",
                    "type": "address"
                }
            ],
            "name": "ERC721InvalidReceiver",
            "type": "error"
        },
        {
            "inputs": [
                {
                    "internalType": "address",
                    "name": "sender",
                    "type": "address"
                }
            ],
            "name": "ERC721InvalidSender",
            "type": "error"
        },
        {
            "inputs": [
                {
                    "internalType": "uint256",
                    "name": "tokenId",
                    "type": "uint256"
                }
            ],
            "name": "ERC721NonexistentToken",
            "type": "error"
        },
        {
            "inputs": [
                {
                    "internalType": "address",
                    "name": "owner",
                    "type": "address"
                }
            ],
            "name": "OwnableInvalidOwner",
            "type": "error"
        },
        {
            "inputs": [
                {
                    "internalType": "address",
                    "name": "account",
                    "type": "address"
                }
            ],
            "name": "OwnableUnauthorizedAccount",
            "type": "error"
        },
        {
            "anonymous": false,
            "inputs": [
                {
                    "indexed": true,
                    "internalType": "address",
                    "name": "owner",
                    "type": "address"
                },
                {
                    "indexed": true,
                    "internalType": "address",
                    "name": "approved",
                    "type": "address"
                },
                {
                    "indexed": true,
                    "internalType": "uint256",
                    "name": "tokenId",
                    "type": "uint256"
                }
            ],
            "name": "Approval",
            "type": "event"
        },
        {
            "anonymous": false,
            "inputs": [
                {
                    "indexed": true,
                    "internalType": "address",
                    "name": "owner",
                    "type": "address"
                },
                {
                    "indexed": true,
                    "internalType": "address",
                    "name": "operator",
                    "type": "address"
                },
                {
                    "indexed": false,
                    "internalType": "bool",
                    "name": "approved",
                    "type": "bool"
                }
            ],
            "name": "ApprovalForAll",
            "type": "event"
        },
        {
            "anonymous": false,
            "inputs": [
                {
                    "indexed": true,
                    "internalType": "uint256",
                    "name": "landId",
                    "type": "uint256"
                },
                {
                    "indexed": false,
                    "internalType": "uint256",
                    "name": "price",
                    "type": "uint256"
                }
            ],
            "name": "LandListedForSale",
            "type": "event"
        },
        {
            "anonymous": false,
            "inputs": [
                {
                    "indexed": true,
                    "internalType": "uint256",
                    "name": "tokenId",
                    "type": "uint256"
                },
                {
                    "indexed": true,
                    "internalType": "address",
                    "name": "owner",
                    "type": "address"
                },
                {
                    "indexed": false,
                    "internalType": "string",
                    "name": "nftId",
                    "type": "string"
                }
            ],
            "name": "LandMinted",
            "type": "event"
        },
        {
            "anonymous": false,
            "inputs": [
                {
                    "indexed": true,
                    "internalType": "uint256",
                    "name": "landId",
                    "type": "uint256"
                },
                {
                    "indexed": true,
                    "internalType": "address",
                    "name": "owner",
                    "type": "address"
                }
            ],
            "name": "LandRegistered",
            "type": "event"
        },
        {
            "anonymous": false,
            "inputs": [
                {
                    "indexed": true,
                    "internalType": "uint256",
                    "name": "landId",
                    "type": "uint256"
                },
                {
                    "indexed": true,
                    "internalType": "address",
                    "name": "buyer",
                    "type": "address"
                },
                {
                    "indexed": false,
                    "internalType": "uint256",
                    "name": "price",
                    "type": "uint256"
                }
            ],
            "name": "LandSold",
            "type": "event"
        },
        {
            "anonymous": false,
            "inputs": [
                {
                    "indexed": true,
                    "internalType": "uint256",
                    "name": "landId",
                    "type": "uint256"
                },
                {
                    "indexed": false,
                    "internalType": "bool",
                    "name": "accepted",
                    "type": "bool"
                }
            ],
            "name": "LandSurveyed",
            "type": "event"
        },
        {
            "anonymous": false,
            "inputs": [
                {
                    "indexed": true,
                    "internalType": "address",
                    "name": "verifier",
                    "type": "address"
                },
                {
                    "indexed": true,
                    "internalType": "uint256",
                    "name": "landId",
                    "type": "uint256"
                },
                {
                    "indexed": false,
                    "internalType": "bool",
                    "name": "valid",
                    "type": "bool"
                }
            ],
            "name": "LandVerification",
            "type": "event"
        },
        {
            "anonymous": false,
            "inputs": [
                {
                    "indexed": true,
                    "internalType": "address",
                    "name": "previousOwner",
                    "type": "address"
                },
                {
                    "indexed": true,
                    "internalType": "address",
                    "name": "newOwner",
                    "type": "address"
                }
            ],
            "name": "OwnershipTransferred",
            "type": "event"
        },
        {
            "anonymous": false,
            "inputs": [
                {
                    "indexed": true,
                    "internalType": "uint256",
                    "name": "landId",
                    "type": "uint256"
                },
                {
                    "indexed": true,
                    "internalType": "address",
                    "name": "previousOwner",
                    "type": "address"
                },
                {
                    "indexed": true,
                    "internalType": "address",
                    "name": "newOwner",
                    "type": "address"
                }
            ],
            "name": "OwnershipTransferred",
            "type": "event"
        },
        {
            "anonymous": false,
            "inputs": [
                {
                    "indexed": true,
                    "internalType": "address",
                    "name": "from",
                    "type": "address"
                },
                {
                    "indexed": true,
                    "internalType": "address",
                    "name": "to",
                    "type": "address"
                },
                {
                    "indexed": true,
                    "internalType": "uint256",
                    "name": "tokenId",
                    "type": "uint256"
                }
            ],
            "name": "Transfer",
            "type": "event"
        },
        {
            "inputs": [
                {
                    "internalType": "address",
                    "name": "to",
                    "type": "address"
                },
                {
                    "internalType": "uint256",
                    "name": "tokenId",
                    "type": "uint256"
                }
            ],
            "name": "approve",
            "outputs": [],
            "stateMutability": "nonpayable",
            "type": "function"
        },
        {
            "inputs": [
                {
                    "internalType": "address",
                    "name": "owner",
                    "type": "address"
                }
            ],
            "name": "balanceOf",
            "outputs": [
                {
                    "internalType": "uint256",
                    "name": "",
                    "type": "uint256"
                }
            ],
            "stateMutability": "view",
            "type": "function"
        },
        {
            "inputs": [],
            "name": "getAllRegisteredLands",
            "outputs": [
                {
                    "internalType": "uint256[]",
                    "name": "",
                    "type": "uint256[]"
                }
            ],
            "stateMutability": "view",
            "type": "function"
        },
        {
            "inputs": [
                {
                    "internalType": "uint256",
                    "name": "tokenId",
                    "type": "uint256"
                }
            ],
            "name": "getApproved",
            "outputs": [
                {
                    "internalType": "address",
                    "name": "",
                    "type": "address"
                }
            ],
            "stateMutability": "view",
            "type": "function"
        },
        {
            "inputs": [
                {
                    "internalType": "uint256",
                    "name": "landId",
                    "type": "uint256"
                }
            ],
            "name": "getLandDetails",
            "outputs": [
                {
                    "components": [
                        {
                            "internalType": "string",
                            "name": "title",
                            "type": "string"
                        },
                        {
                            "internalType": "string",
                            "name": "location",
                            "type": "string"
                        },
                        {
                            "internalType": "string",
                            "name": "condition",
                            "type": "string"
                        },
                        {
                            "internalType": "string",
                            "name": "features",
                            "type": "string"
                        },
                        {
                            "internalType": "string",
                            "name": "documentHash",
                            "type": "string"
                        },
                        {
                            "internalType": "bool",
                            "name": "isRegistered",
                            "type": "bool"
                        },
                        {
                            "internalType": "bool",
                            "name": "isSurveyed",
                            "type": "bool"
                        },
                        {
                            "internalType": "bool",
                            "name": "isMinted",
                            "type": "bool"
                        },
                        {
                            "internalType": "uint256",
                            "name": "price",
                            "type": "uint256"
                        },
                        {
                            "internalType": "bool",
                            "name": "isForSale",
                            "type": "bool"
                        }
                    ],
                    "internalType": "struct LandRegistry.Land",
                    "name": "",
                    "type": "tuple"
                }
            ],
            "stateMutability": "view",
            "type": "function"
        },
        {
            "inputs": [],
            "name": "getRegisteredLands",
            "outputs": [
                {
                    "internalType": "uint256[]",
                    "name": "",
                    "type": "uint256[]"
                }
            ],
            "stateMutability": "view",
            "type": "function"
        },
        {
            "inputs": [
                {
                    "internalType": "address",
                    "name": "user",
                    "type": "address"
                }
            ],
            "name": "getUserRegisteredLands",
            "outputs": [
                {
                    "internalType": "uint256[]",
                    "name": "",
                    "type": "uint256[]"
                }
            ],
            "stateMutability": "view",
            "type": "function"
        },
        {
            "inputs": [
                {
                    "internalType": "address",
                    "name": "owner",
                    "type": "address"
                },
                {
                    "internalType": "address",
                    "name": "operator",
                    "type": "address"
                }
            ],
            "name": "isApprovedForAll",
            "outputs": [
                {
                    "internalType": "bool",
                    "name": "",
                    "type": "bool"
                }
            ],
            "stateMutability": "view",
            "type": "function"
        },
        {
            "inputs": [
                {
                    "internalType": "uint256",
                    "name": "",
                    "type": "uint256"
                }
            ],
            "name": "lands",
            "outputs": [
                {
                    "internalType": "string",
                    "name": "title",
                    "type": "string"
                },
                {
                    "internalType": "string",
                    "name": "location",
                    "type": "string"
                },
                {
                    "internalType": "string",
                    "name": "condition",
                    "type": "string"
                },
                {
                    "internalType": "string",
                    "name": "features",
                    "type": "string"
                },
                {
                    "internalType": "string",
                    "name": "documentHash",
                    "type": "string"
                },
                {
                    "internalType": "bool",
                    "name": "isRegistered",
                    "type": "bool"
                },
                {
                    "internalType": "bool",
                    "name": "isSurveyed",
                    "type": "bool"
                },
                {
                    "internalType": "bool",
                    "name": "isMinted",
                    "type": "bool"
                },
                {
                    "internalType": "uint256",
                    "name": "price",
                    "type": "uint256"
                },
                {
                    "internalType": "bool",
                    "name": "isForSale",
                    "type": "bool"
                }
            ],
            "stateMutability": "view",
            "type": "function"
        },
        {
            "inputs": [
                {
                    "internalType": "uint256",
                    "name": "landId",
                    "type": "uint256"
                },
                {
                    "internalType": "uint256",
                    "name": "price",
                    "type": "uint256"
                }
            ],
            "name": "listLandForSale",
            "outputs": [],
            "stateMutability": "nonpayable",
            "type": "function"
        },
        {
            "inputs": [
                {
                    "internalType": "uint256",
                    "name": "landId",
                    "type": "uint256"
                }
            ],
            "name": "mintLandNFT",
            "outputs": [],
            "stateMutability": "nonpayable",
            "type": "function"
        },
        {
            "inputs": [],
            "name": "name",
            "outputs": [
                {
                    "internalType": "string",
                    "name": "",
                    "type": "string"
                }
            ],
            "stateMutability": "view",
            "type": "function"
        },
        {
            "inputs": [],
            "name": "owner",
            "outputs": [
                {
                    "internalType": "address",
                    "name": "",
                    "type": "address"
                }
            ],
            "stateMutability": "view",
            "type": "function"
        },
        {
            "inputs": [
                {
                    "internalType": "address",
                    "name": "",
                    "type": "address"
                },
                {
                    "internalType": "uint256",
                    "name": "",
                    "type": "uint256"
                }
            ],
            "name": "ownerLands",
            "outputs": [
                {
                    "internalType": "uint256",
                    "name": "",
                    "type": "uint256"
                }
            ],
            "stateMutability": "view",
            "type": "function"
        },
        {
            "inputs": [
                {
                    "internalType": "uint256",
                    "name": "tokenId",
                    "type": "uint256"
                }
            ],
            "name": "ownerOf",
            "outputs": [
                {
                    "internalType": "address",
                    "name": "",
                    "type": "address"
                }
            ],
            "stateMutability": "view",
            "type": "function"
        },
        {
            "inputs": [
                {
                    "internalType": "uint256",
                    "name": "landId",
                    "type": "uint256"
                }
            ],
            "name": "purchaseLand",
            "outputs": [],
            "stateMutability": "payable",
            "type": "function"
        },
        {
            "inputs": [
                {
                    "internalType": "string",
                    "name": "_title",
                    "type": "string"
                },
                {
                    "internalType": "string",
                    "name": "_location",
                    "type": "string"
                },
                {
                    "internalType": "string",
                    "name": "_condition",
                    "type": "string"
                },
                {
                    "internalType": "string",
                    "name": "_features",
                    "type": "string"
                },
                {
                    "internalType": "string",
                    "name": "_documentHash",
                    "type": "string"
                }
            ],
            "name": "registerLand",
            "outputs": [
                {
                    "internalType": "uint256",
                    "name": "",
                    "type": "uint256"
                }
            ],
            "stateMutability": "nonpayable",
            "type": "function"
        },
        {
            "inputs": [],
            "name": "renounceOwnership",
            "outputs": [],
            "stateMutability": "nonpayable",
            "type": "function"
        },
        {
            "inputs": [
                {
                    "internalType": "address",
                    "name": "from",
                    "type": "address"
                },
                {
                    "internalType": "address",
                    "name": "to",
                    "type": "address"
                },
                {
                    "internalType": "uint256",
                    "name": "tokenId",
                    "type": "uint256"
                }
            ],
            "name": "safeTransferFrom",
            "outputs": [],
            "stateMutability": "nonpayable",
            "type": "function"
        },
        {
            "inputs": [
                {
                    "internalType": "address",
                    "name": "from",
                    "type": "address"
                },
                {
                    "internalType": "address",
                    "name": "to",
                    "type": "address"
                },
                {
                    "internalType": "uint256",
                    "name": "tokenId",
                    "type": "uint256"
                },
                {
                    "internalType": "bytes",
                    "name": "data",
                    "type": "bytes"
                }
            ],
            "name": "safeTransferFrom",
            "outputs": [],
            "stateMutability": "nonpayable",
            "type": "function"
        },
        {
            "inputs": [
                {
                    "internalType": "address",
                    "name": "operator",
                    "type": "address"
                },
                {
                    "internalType": "bool",
                    "name": "approved",
                    "type": "bool"
                }
            ],
            "name": "setApprovalForAll",
            "outputs": [],
            "stateMutability": "nonpayable",
            "type": "function"
        },
        {
            "inputs": [
                {
                    "internalType": "bytes4",
                    "name": "interfaceId",
                    "type": "bytes4"
                }
            ],
            "name": "supportsInterface",
            "outputs": [
                {
                    "internalType": "bool",
                    "name": "",
                    "type": "bool"
                }
            ],
            "stateMutability": "view",
            "type": "function"
        },
        {
            "inputs": [
                {
                    "internalType": "uint256",
                    "name": "landId",
                    "type": "uint256"
                },
                {
                    "internalType": "bool",
                    "name": "accepted",
                    "type": "bool"
                }
            ],
            "name": "surveyLand",
            "outputs": [],
            "stateMutability": "nonpayable",
            "type": "function"
        },
        {
            "inputs": [],
            "name": "symbol",
            "outputs": [
                {
                    "internalType": "string",
                    "name": "",
                    "type": "string"
                }
            ],
            "stateMutability": "view",
            "type": "function"
        },
        {
            "inputs": [
                {
                    "internalType": "uint256",
                    "name": "tokenId",
                    "type": "uint256"
                }
            ],
            "name": "tokenURI",
            "outputs": [
                {
                    "internalType": "string",
                    "name": "",
                    "type": "string"
                }
            ],
            "stateMutability": "view",
            "type": "function"
        },
        {
            "inputs": [
                {
                    "internalType": "address",
                    "name": "from",
                    "type": "address"
                },
                {
                    "internalType": "address",
                    "name": "to",
                    "type": "address"
                },
                {
                    "internalType": "uint256",
                    "name": "tokenId",
                    "type": "uint256"
                }
            ],
            "name": "transferFrom",
            "outputs": [],
            "stateMutability": "nonpayable",
            "type": "function"
        },
        {
            "inputs": [
                {
                    "internalType": "address",
                    "name": "newOwner",
                    "type": "address"
                }
            ],
            "name": "transferOwnership",
            "outputs": [],
            "stateMutability": "nonpayable",
            "type": "function"
        },
        {
            "inputs": [
                {
                    "internalType": "uint256",
                    "name": "landId",
                    "type": "uint256"
                }
            ],
            "name": "verifyLand",
            "outputs": [
                {
                    "internalType": "bool",
                    "name": "",
                    "type": "bool"
                }
            ],
            "stateMutability": "view",
            "type": "function"
        }
    ],
    "bytecode": "0x608060405260006007553480156200001657600080fd5b50336040518060400160405280600f81526020017f4c616e6452656769737472794e465400000000000000000000000000000000008152506040518060400160405280600581526020017f4c524e4654000000000000000000000000000000000000000000000000000000815250816000908162000095919062000477565b508060019081620000a7919062000477565b505050600073ffffffffffffffffffffffffffffffffffffffff168173ffffffffffffffffffffffffffffffffffffffff16036200011f5760006040517f1e4fbdf7000000000000000000000000000000000000000000000000000000008152600401620001169190620005a3565b60405180910390fd5b62000130816200013760201b60201c565b50620005c0565b6000600660009054906101000a900473ffffffffffffffffffffffffffffffffffffffff16905081600660006101000a81548173ffffffffffffffffffffffffffffffffffffffff021916908373ffffffffffffffffffffffffffffffffffffffff1602179055508173ffffffffffffffffffffffffffffffffffffffff168173ffffffffffffffffffffffffffffffffffffffff167f8be0079c531659141344cd1fd0a4f28419497f9722a3daafe3b4186f6b6457e060405160405180910390a35050565b600081519050919050565b7f4e487b7100000000000000000000000000000000000000000000000000000000600052604160045260246000fd5b7f4e487b7100000000000000000000000000000000000000000000000000000000600052602260045260246000fd5b600060028204905060018216806200027f57607f821691505b60208210810362000295576200029462000237565b5b50919050565b60008190508160005260206000209050919050565b60006020601f8301049050919050565b600082821b905092915050565b600060088302620002ff7fffffffffffffffffffffffffffffffffffffffffffffffffffffffffffffffff82620002c0565b6200030b8683620002c0565b95508019841693508086168417925050509392505050565b6000819050919050565b6000819050919050565b600062000358620003526200034c8462000323565b6200032d565b62000323565b9050919050565b6000819050919050565b620003748362000337565b6200038c62000383826200035f565b848454620002cd565b825550505050565b600090565b620003a362000394565b620003b081848462000369565b505050565b5b81811015620003d857620003cc60008262000399565b600181019050620003b6565b5050565b601f8211156200042757620003f1816200029b565b620003fc84620002b0565b810160208510156200040c578190505b620004246200041b85620002b0565b830182620003b5565b50505b505050565b600082821c905092915050565b60006200044c600019846008026200042c565b1980831691505092915050565b600062000467838362000439565b9150826002028217905092915050565b6200048282620001fd565b67ffffffffffffffff8111156200049e576200049d62000208565b5b620004aa825462000266565b620004b7828285620003dc565b600060209050601f831160018114620004ef5760008415620004da578287015190505b620004e6858262000459565b86555062000556565b601f198416620004ff866200029b565b60005b82811015620005295784890151825560018201915060208501945060208101905062000502565b8683101562000549578489015162000545601f89168262000439565b8355505b6001600288020188555050505b505050505050565b600073ffffffffffffffffffffffffffffffffffffffff82169050919050565b60006200058b826200055e565b9050919050565b6200059d816200057e565b82525050565b6000602082019050620005ba600083018462000592565b92915050565b61486780620005d06000396000f3fe6080604052600436106101b75760003560e01c80638da5cb5b116100ec578063d0dea6e21161008a578063f2fde38b11610064578063f2fde38b14610650578063f9c43bdf14610679578063fd1a8fef146106b6578063fe0cb7dc146106df576101b7565b8063d0dea6e214610590578063e261f1e5146105cd578063e985e9c514610613576101b7565b8063ae312296116100c6578063ae312296146104d4578063b88d4fde146104ff578063c87b56dd14610528578063ce073c1f14610565576101b7565b80638da5cb5b1461045557806395d89b4114610480578063a22cb465146104ab576101b7565b806326fb2e4f116101595780636b41e752116101335780636b41e752146103bc57806370a08231146103e5578063715018a6146104225780638009d5d714610439576101b7565b806326fb2e4f1461032d57806342842e0e146103565780636352211e1461037f576101b7565b8063081812fc11610195578063081812fc14610261578063095ea7b31461029e57806323b872dd146102c757806323c68980146102f0576101b7565b806301ffc9a7146101bc5780630219b77f146101f957806306fdde0314610236575b600080fd5b3480156101c857600080fd5b506101e360048036038101906101de919061332b565b61071c565b6040516101f09190613373565b60405180910390f35b34801561020557600080fd5b50610220600480360381019061021b91906133ec565b6107fe565b60405161022d91906134e1565b60405180910390f35b34801561024257600080fd5b5061024b610895565b6040516102589190613593565b60405180910390f35b34801561026d57600080fd5b50610288600480360381019061028391906135e1565b610927565b604051610295919061361d565b60405180910390f35b3480156102aa57600080fd5b506102c560048036038101906102c09190613638565b610943565b005b3480156102d357600080fd5b506102ee60048036038101906102e99190613678565b610959565b005b3480156102fc57600080fd5b5061031760048036038101906103129190613800565b610a5b565b6040516103249190613916565b60405180910390f35b34801561033957600080fd5b50610354600480360381019061034f91906135e1565b610c91565b005b34801561036257600080fd5b5061037d60048036038101906103789190613678565b610e88565b005b34801561038b57600080fd5b506103a660048036038101906103a191906135e1565b610ea8565b6040516103b3919061361d565b60405180910390f35b3480156103c857600080fd5b506103e360048036038101906103de919061395d565b610eba565b005b3480156103f157600080fd5b5061040c600480360381019061040791906133ec565b610f8f565b6040516104199190613916565b60405180910390f35b34801561042e57600080fd5b50610437611049565b005b610453600480360381019061044e91906135e1565b61105d565b005b34801561046157600080fd5b5061046a611314565b604051610477919061361d565b60405180910390f35b34801561048c57600080fd5b5061049561133e565b6040516104a29190613593565b60405180910390f35b3480156104b757600080fd5b506104d260048036038101906104cd919061399d565b6113d0565b005b3480156104e057600080fd5b506104e96113e6565b6040516104f691906134e1565b60405180910390f35b34801561050b57600080fd5b5061052660048036038101906105219190613a7e565b611558565b005b34801561053457600080fd5b5061054f600480360381019061054a91906135e1565b611575565b60405161055c9190613593565b60405180910390f35b34801561057157600080fd5b5061057a6115de565b60405161058791906134e1565b60405180910390f35b34801561059c57600080fd5b506105b760048036038101906105b29190613638565b611673565b6040516105c49190613916565b60405180910390f35b3480156105d957600080fd5b506105f460048036038101906105ef91906135e1565b6116a4565b60405161060a9a99989796959493929190613b01565b60405180910390f35b34801561061f57600080fd5b5061063a60048036038101906106359190613bc0565b6119d4565b6040516106479190613373565b60405180910390f35b34801561065c57600080fd5b50610677600480360381019061067291906133ec565b611a68565b005b34801561068557600080fd5b506106a0600480360381019061069b91906135e1565b611aee565b6040516106ad9190613373565b60405180910390f35b3480156106c257600080fd5b506106dd60048036038101906106d89190613c00565b611b20565b005b3480156106eb57600080fd5b50610706600480360381019061070191906135e1565b611d28565b6040516107139190613d8f565b60405180910390f35b60007f80ac58cd000000000000000000000000000000000000000000000000000000007bffffffffffffffffffffffffffffffffffffffffffffffffffffffff1916827bffffffffffffffffffffffffffffffffffffffffffffffffffffffff191614806107e757507f5b5e139f000000000000000000000000000000000000000000000000000000007bffffffffffffffffffffffffffffffffffffffffffffffffffffffff1916827bffffffffffffffffffffffffffffffffffffffffffffffffffffffff1916145b806107f757506107f682612109565b5b9050919050565b6060600960008373ffffffffffffffffffffffffffffffffffffffff1673ffffffffffffffffffffffffffffffffffffffff16815260200190815260200160002080548060200260200160405190810160405280929190818152602001828054801561088957602002820191906000526020600020905b815481526020019060010190808311610875575b50505050509050919050565b6060600080546108a490613de0565b80601f01602080910402602001604051908101604052809291908181526020018280546108d090613de0565b801561091d5780601f106108f25761010080835404028352916020019161091d565b820191906000526020600020905b81548152906001019060200180831161090057829003601f168201915b5050505050905090565b600061093282612173565b5061093c826121fb565b9050919050565b6109558282610950612238565b612240565b5050565b600073ffffffffffffffffffffffffffffffffffffffff168273ffffffffffffffffffffffffffffffffffffffff16036109cb5760006040517f64a0ae920000000000000000000000000000000000000000000000000000000081526004016109c2919061361d565b60405180910390fd5b60006109df83836109da612238565b612252565b90508373ffffffffffffffffffffffffffffffffffffffff168173ffffffffffffffffffffffffffffffffffffffff1614610a55578382826040517f64283d7b000000000000000000000000000000000000000000000000000000008152600401610a4c93929190613e11565b60405180910390fd5b50505050565b60008060076000815480929190610a7190613e77565b9190505590506040518061014001604052808881526020018781526020018681526020018581526020018481526020016001151581526020016000151581526020016000151581526020016000815260200160001515815250600860008381526020019081526020016000206000820151816000019081610af2919061406b565b506020820151816001019081610b08919061406b565b506040820151816002019081610b1e919061406b565b506060820151816003019081610b34919061406b565b506080820151816004019081610b4a919061406b565b5060a08201518160050160006101000a81548160ff02191690831515021790555060c08201518160050160016101000a81548160ff02191690831515021790555060e08201518160050160026101000a81548160ff02191690831515021790555061010082015181600601556101208201518160070160006101000a81548160ff021916908315150217905550905050600960003373ffffffffffffffffffffffffffffffffffffffff1673ffffffffffffffffffffffffffffffffffffffff1681526020019081526020016000208190806001815401808255809150506001900390600052602060002001600090919091909150553373ffffffffffffffffffffffffffffffffffffffff16817fcb4990052f95f6057496d19524f6c3163f50af9f33f2c15b092928e03414323e60405160405180910390a38091505095945050505050565b803373ffffffffffffffffffffffffffffffffffffffff16610cb282610ea8565b73ffffffffffffffffffffffffffffffffffffffff1614610d08576040517f08c379a0000000000000000000000000000000000000000000000000000000008152600401610cff90614189565b60405180910390fd5b6008600083815260200190815260200160002060050160019054906101000a900460ff16610d6b576040517f08c379a0000000000000000000000000000000000000000000000000000000008152600401610d62906141f5565b60405180910390fd5b6008600083815260200190815260200160002060050160029054906101000a900460ff1615610dcf576040517f08c379a0000000000000000000000000000000000000000000000000000000008152600401610dc690614261565b60405180910390fd5b60016008600084815260200190815260200160002060050160026101000a81548160ff021916908315150217905550610e08338361246c565b6000610e1383612565565b604051602001610e239190614309565b60405160208183030381529060405290503373ffffffffffffffffffffffffffffffffffffffff16837fc90e02727a6d339588cdd8fd77a925792b5b9c252ad61b67e234e5fde620e2bb83604051610e7b9190613593565b60405180910390a3505050565b610ea383838360405180602001604052806000815250611558565b505050565b6000610eb382612173565b9050919050565b610ec26126c5565b6008600083815260200190815260200160002060050160009054906101000a900460ff16610f25576040517f08c379a0000000000000000000000000000000000000000000000000000000008152600401610f1c90614377565b60405180910390fd5b806008600084815260200190815260200160002060050160016101000a81548160ff021916908315150217905550817f356d75e58b834d8adde2d218d3dbf6ff5bd275b24c0bcdb1a5b14274f8f4521382604051610f839190613373565b60405180910390a25050565b60008073ffffffffffffffffffffffffffffffffffffffff168273ffffffffffffffffffffffffffffffffffffffff16036110025760006040517f89c62b64000000000000000000000000000000000000000000000000000000008152600401610ff9919061361d565b60405180910390fd5b600360008373ffffffffffffffffffffffffffffffffffffffff1673ffffffffffffffffffffffffffffffffffffffff168152602001908152602001600020549050919050565b6110516126c5565b61105b600061274c565b565b6008600082815260200190815260200160002060070160009054906101000a900460ff166110c0576040517f08c379a00000000000000000000000000000000000000000000000000000000081526004016110b7906143e3565b60405180910390fd5b6008600082815260200190815260200160002060050160009054906101000a900460ff16611123576040517f08c379a000000000000000000000000000000000000000000000000000000000815260040161111a90614475565b60405180910390fd5b600860008281526020019081526020016000206006015434101561117c576040517f08c379a0000000000000000000000000000000000000000000000000000000008152600401611173906144e1565b60405180910390fd5b600061118782610ea8565b905060006008600084815260200190815260200160002060060154905060006064826111b39190614530565b905060006032836111c49190614530565b9050600081836111d49190614561565b846111df9190614595565b90508473ffffffffffffffffffffffffffffffffffffffff166108fc829081150290604051600060405180830381858888f19350505050158015611227573d6000803e3d6000fd5b50611233853388612812565b60006008600088815260200190815260200160002060070160006101000a81548160ff0219169083151502179055503373ffffffffffffffffffffffffffffffffffffffff16867f2ecc42622b7fc13403eb178d6475f112f2672ca7f533b668bc9cf171560560ac866040516112a99190613916565b60405180910390a33373ffffffffffffffffffffffffffffffffffffffff168573ffffffffffffffffffffffffffffffffffffffff16877f16b85f49bf01212961345d3016c9a531894accf62eb7680f2045d79185cc0ec060405160405180910390a4505050505050565b6000600660009054906101000a900473ffffffffffffffffffffffffffffffffffffffff16905090565b60606001805461134d90613de0565b80601f016020809104026020016040519081016040528092919081815260200182805461137990613de0565b80156113c65780601f1061139b576101008083540402835291602001916113c6565b820191906000526020600020905b8154815290600101906020018083116113a957829003601f168201915b5050505050905090565b6113e26113db612238565b838361297f565b5050565b60606000600754905060008167ffffffffffffffff81111561140b5761140a6136d5565b5b6040519080825280602002602001820160405280156114395781602001602082028036833780820191505090505b5090506000805b838110156114ad576008600082815260200190815260200160002060050160009054906101000a900460ff16156114a05780838381518110611485576114846145c9565b5b602002602001018181525050818061149c90613e77565b9250505b8080600101915050611440565b5060008167ffffffffffffffff8111156114ca576114c96136d5565b5b6040519080825280602002602001820160405280156114f85781602001602082028036833780820191505090505b50905060005b8281101561154d57838181518110611519576115186145c9565b5b6020026020010151828281518110611534576115336145c9565b5b60200260200101818152505080806001019150506114fe565b508094505050505090565b611563848484610959565b61156f84848484612aee565b50505050565b606061158082612173565b50600061158b612ca5565b905060008151116115ab57604051806020016040528060008152506115d6565b806115b584612cbc565b6040516020016115c69291906145f8565b6040516020818303038152906040525b915050919050565b6060600960003373ffffffffffffffffffffffffffffffffffffffff1673ffffffffffffffffffffffffffffffffffffffff16815260200190815260200160002080548060200260200160405190810160405280929190818152602001828054801561166957602002820191906000526020600020905b815481526020019060010190808311611655575b5050505050905090565b6009602052816000526040600020818154811061168f57600080fd5b90600052602060002001600091509150505481565b60086020528060005260406000206000915090508060000180546116c790613de0565b80601f01602080910402602001604051908101604052809291908181526020018280546116f390613de0565b80156117405780601f1061171557610100808354040283529160200191611740565b820191906000526020600020905b81548152906001019060200180831161172357829003601f168201915b50505050509080600101805461175590613de0565b80601f016020809104026020016040519081016040528092919081815260200182805461178190613de0565b80156117ce5780601f106117a3576101008083540402835291602001916117ce565b820191906000526020600020905b8154815290600101906020018083116117b157829003601f168201915b5050505050908060020180546117e390613de0565b80601f016020809104026020016040519081016040528092919081815260200182805461180f90613de0565b801561185c5780601f106118315761010080835404028352916020019161185c565b820191906000526020600020905b81548152906001019060200180831161183f57829003601f168201915b50505050509080600301805461187190613de0565b80601f016020809104026020016040519081016040528092919081815260200182805461189d90613de0565b80156118ea5780601f106118bf576101008083540402835291602001916118ea565b820191906000526020600020905b8154815290600101906020018083116118cd57829003601f168201915b5050505050908060040180546118ff90613de0565b80601f016020809104026020016040519081016040528092919081815260200182805461192b90613de0565b80156119785780601f1061194d57610100808354040283529160200191611978565b820191906000526020600020905b81548152906001019060200180831161195b57829003601f168201915b5050505050908060050160009054906101000a900460ff16908060050160019054906101000a900460ff16908060050160029054906101000a900460ff16908060060154908060070160009054906101000a900460ff1690508a565b6000600560008473ffffffffffffffffffffffffffffffffffffffff1673ffffffffffffffffffffffffffffffffffffffff16815260200190815260200160002060008373ffffffffffffffffffffffffffffffffffffffff1673ffffffffffffffffffffffffffffffffffffffff16815260200190815260200160002060009054906101000a900460ff16905092915050565b611a706126c5565b600073ffffffffffffffffffffffffffffffffffffffff168173ffffffffffffffffffffffffffffffffffffffff1603611ae25760006040517f1e4fbdf7000000000000000000000000000000000000000000000000000000008152600401611ad9919061361d565b60405180910390fd5b611aeb8161274c565b50565b6000806008600084815260200190815260200160002060050160029054906101000a900460ff16905080915050919050565b813373ffffffffffffffffffffffffffffffffffffffff16611b4182610ea8565b73ffffffffffffffffffffffffffffffffffffffff1614611b97576040517f08c379a0000000000000000000000000000000000000000000000000000000008152600401611b8e90614189565b60405180910390fd5b6008600084815260200190815260200160002060050160009054906101000a900460ff16611bfa576040517f08c379a0000000000000000000000000000000000000000000000000000000008152600401611bf190614475565b60405180910390fd5b6008600084815260200190815260200160002060070160009054906101000a900460ff1615611c5e576040517f08c379a0000000000000000000000000000000000000000000000000000000008152600401611c5590614668565b60405180910390fd5b60008211611ca1576040517f08c379a0000000000000000000000000000000000000000000000000000000008152600401611c98906146d4565b60405180910390fd5b60016008600085815260200190815260200160002060070160006101000a81548160ff021916908315150217905550816008600085815260200190815260200160002060060181905550827fdea5c3193c68e6199b356e0ceac7970d0951be96d03378b29dbaf40b6e2f433483604051611d1b9190613916565b60405180910390a2505050565b611d30613264565b6008600083815260200190815260200160002060050160009054906101000a900460ff16611d93576040517f08c379a0000000000000000000000000000000000000000000000000000000008152600401611d8a90614377565b60405180910390fd5b6008600083815260200190815260200160002060405180610140016040529081600082018054611dc290613de0565b80601f0160208091040260200160405190810160405280929190818152602001828054611dee90613de0565b8015611e3b5780601f10611e1057610100808354040283529160200191611e3b565b820191906000526020600020905b815481529060010190602001808311611e1e57829003601f168201915b50505050508152602001600182018054611e5490613de0565b80601f0160208091040260200160405190810160405280929190818152602001828054611e8090613de0565b8015611ecd5780601f10611ea257610100808354040283529160200191611ecd565b820191906000526020600020905b815481529060010190602001808311611eb057829003601f168201915b50505050508152602001600282018054611ee690613de0565b80601f0160208091040260200160405190810160405280929190818152602001828054611f1290613de0565b8015611f5f5780601f10611f3457610100808354040283529160200191611f5f565b820191906000526020600020905b815481529060010190602001808311611f4257829003601f168201915b50505050508152602001600382018054611f7890613de0565b80601f0160208091040260200160405190810160405280929190818152602001828054611fa490613de0565b8015611ff15780601f10611fc657610100808354040283529160200191611ff1565b820191906000526020600020905b815481529060010190602001808311611fd457829003601f168201915b5050505050815260200160048201805461200a90613de0565b80601f016020809104026020016040519081016040528092919081815260200182805461203690613de0565b80156120835780601f1061205857610100808354040283529160200191612083565b820191906000526020600020905b81548152906001019060200180831161206657829003601f168201915b505050505081526020016005820160009054906101000a900460ff161515151581526020016005820160019054906101000a900460ff161515151581526020016005820160029054906101000a900460ff16151515158152602001600682015481526020016007820160009054906101000a900460ff1615151515815250509050919050565b60007f01ffc9a7000000000000000000000000000000000000000000000000000000007bffffffffffffffffffffffffffffffffffffffffffffffffffffffff1916827bffffffffffffffffffffffffffffffffffffffffffffffffffffffff1916149050919050565b60008061217f83612d8a565b9050600073ffffffffffffffffffffffffffffffffffffffff168173ffffffffffffffffffffffffffffffffffffffff16036121f257826040517f7e2732890000000000000000000000000000000000000000000000000000000081526004016121e99190613916565b60405180910390fd5b80915050919050565b60006004600083815260200190815260200160002060009054906101000a900473ffffffffffffffffffffffffffffffffffffffff169050919050565b600033905090565b61224d8383836001612dc7565b505050565b60008061225e84612d8a565b9050600073ffffffffffffffffffffffffffffffffffffffff168373ffffffffffffffffffffffffffffffffffffffff16146122a05761229f818486612f8c565b5b600073ffffffffffffffffffffffffffffffffffffffff168173ffffffffffffffffffffffffffffffffffffffff1614612331576122e2600085600080612dc7565b6001600360008373ffffffffffffffffffffffffffffffffffffffff1673ffffffffffffffffffffffffffffffffffffffff168152602001908152602001600020600082825403925050819055505b600073ffffffffffffffffffffffffffffffffffffffff168573ffffffffffffffffffffffffffffffffffffffff16146123b4576001600360008773ffffffffffffffffffffffffffffffffffffffff1673ffffffffffffffffffffffffffffffffffffffff168152602001908152602001600020600082825401925050819055505b846002600086815260200190815260200160002060006101000a81548173ffffffffffffffffffffffffffffffffffffffff021916908373ffffffffffffffffffffffffffffffffffffffff160217905550838573ffffffffffffffffffffffffffffffffffffffff168273ffffffffffffffffffffffffffffffffffffffff167fddf252ad1be2c89b69c2b068fc378daa952ba7f163c4a11628f55a4df523b3ef60405160405180910390a4809150509392505050565b600073ffffffffffffffffffffffffffffffffffffffff168273ffffffffffffffffffffffffffffffffffffffff16036124de5760006040517f64a0ae920000000000000000000000000000000000000000000000000000000081526004016124d5919061361d565b60405180910390fd5b60006124ec83836000612252565b9050600073ffffffffffffffffffffffffffffffffffffffff168173ffffffffffffffffffffffffffffffffffffffff16146125605760006040517f73c6ac6e000000000000000000000000000000000000000000000000000000008152600401612557919061361d565b60405180910390fd5b505050565b6060600082036125ac576040518060400160405280600181526020017f300000000000000000000000000000000000000000000000000000000000000081525090506126c0565b600082905060005b600082146125de5780806125c790613e77565b915050600a826125d79190614530565b91506125b4565b60008167ffffffffffffffff8111156125fa576125f96136d5565b5b6040519080825280601f01601f19166020018201604052801561262c5781602001600182028036833780820191505090505b5090505b600085146126b9576001826126459190614595565b9150600a8561265491906146f4565b60306126609190614561565b60f81b818381518110612676576126756145c9565b5b60200101907effffffffffffffffffffffffffffffffffffffffffffffffffffffffffffff1916908160001a905350600a856126b29190614530565b9450612630565b8093505050505b919050565b6126cd612238565b73ffffffffffffffffffffffffffffffffffffffff166126eb611314565b73ffffffffffffffffffffffffffffffffffffffff161461274a5761270e612238565b6040517f118cdaa7000000000000000000000000000000000000000000000000000000008152600401612741919061361d565b60405180910390fd5b565b6000600660009054906101000a900473ffffffffffffffffffffffffffffffffffffffff16905081600660006101000a81548173ffffffffffffffffffffffffffffffffffffffff021916908373ffffffffffffffffffffffffffffffffffffffff1602179055508173ffffffffffffffffffffffffffffffffffffffff168173ffffffffffffffffffffffffffffffffffffffff167f8be0079c531659141344cd1fd0a4f28419497f9722a3daafe3b4186f6b6457e060405160405180910390a35050565b600073ffffffffffffffffffffffffffffffffffffffff168273ffffffffffffffffffffffffffffffffffffffff16036128845760006040517f64a0ae9200000000000000000000000000000000000000000000000000000000815260040161287b919061361d565b60405180910390fd5b600061289283836000612252565b9050600073ffffffffffffffffffffffffffffffffffffffff168173ffffffffffffffffffffffffffffffffffffffff160361290557816040517f7e2732890000000000000000000000000000000000000000000000000000000081526004016128fc9190613916565b60405180910390fd5b8373ffffffffffffffffffffffffffffffffffffffff168173ffffffffffffffffffffffffffffffffffffffff1614612979578382826040517f64283d7b00000000000000000000000000000000000000000000000000000000815260040161297093929190613e11565b60405180910390fd5b50505050565b600073ffffffffffffffffffffffffffffffffffffffff168273ffffffffffffffffffffffffffffffffffffffff16036129f057816040517f5b08ba180000000000000000000000000000000000000000000000000000000081526004016129e7919061361d565b60405180910390fd5b80600560008573ffffffffffffffffffffffffffffffffffffffff1673ffffffffffffffffffffffffffffffffffffffff16815260200190815260200160002060008473ffffffffffffffffffffffffffffffffffffffff1673ffffffffffffffffffffffffffffffffffffffff16815260200190815260200160002060006101000a81548160ff0219169083151502179055508173ffffffffffffffffffffffffffffffffffffffff168373ffffffffffffffffffffffffffffffffffffffff167f17307eab39ab6107e8899845ad3d59bd9653f200f220920489ca2b5937696c3183604051612ae19190613373565b60405180910390a3505050565b60008373ffffffffffffffffffffffffffffffffffffffff163b1115612c9f578273ffffffffffffffffffffffffffffffffffffffff1663150b7a02612b32612238565b8685856040518563ffffffff1660e01b8152600401612b54949392919061477a565b6020604051808303816000875af1925050508015612b9057506040513d601f19601f82011682018060405250810190612b8d91906147db565b60015b612c14573d8060008114612bc0576040519150601f19603f3d011682016040523d82523d6000602084013e612bc5565b606091505b506000815103612c0c57836040517f64a0ae92000000000000000000000000000000000000000000000000000000008152600401612c03919061361d565b60405180910390fd5b805181602001fd5b63150b7a0260e01b7bffffffffffffffffffffffffffffffffffffffffffffffffffffffff1916817bffffffffffffffffffffffffffffffffffffffffffffffffffffffff191614612c9d57836040517f64a0ae92000000000000000000000000000000000000000000000000000000008152600401612c94919061361d565b60405180910390fd5b505b50505050565b606060405180602001604052806000815250905090565b606060006001612ccb84613050565b01905060008167ffffffffffffffff811115612cea57612ce96136d5565b5b6040519080825280601f01601f191660200182016040528015612d1c5781602001600182028036833780820191505090505b509050600082602001820190505b600115612d7f578080600190039150507f3031323334353637383961626364656600000000000000000000000000000000600a86061a8153600a8581612d7357612d72614501565b5b04945060008503612d2a575b819350505050919050565b60006002600083815260200190815260200160002060009054906101000a900473ffffffffffffffffffffffffffffffffffffffff169050919050565b8080612e005750600073ffffffffffffffffffffffffffffffffffffffff168273ffffffffffffffffffffffffffffffffffffffff1614155b15612f34576000612e1084612173565b9050600073ffffffffffffffffffffffffffffffffffffffff168373ffffffffffffffffffffffffffffffffffffffff1614158015612e7b57508273ffffffffffffffffffffffffffffffffffffffff168173ffffffffffffffffffffffffffffffffffffffff1614155b8015612e8e5750612e8c81846119d4565b155b15612ed057826040517fa9fbf51f000000000000000000000000000000000000000000000000000000008152600401612ec7919061361d565b60405180910390fd5b8115612f3257838573ffffffffffffffffffffffffffffffffffffffff168273ffffffffffffffffffffffffffffffffffffffff167f8c5be1e5ebec7d5bd14f71427d1e84f3dd0314c0f7b2291e5b200ac8c7c3b92560405160405180910390a45b505b836004600085815260200190815260200160002060006101000a81548173ffffffffffffffffffffffffffffffffffffffff021916908373ffffffffffffffffffffffffffffffffffffffff16021790555050505050565b612f978383836131a3565b61304b57600073ffffffffffffffffffffffffffffffffffffffff168373ffffffffffffffffffffffffffffffffffffffff160361300c57806040517f7e2732890000000000000000000000000000000000000000000000000000000081526004016130039190613916565b60405180910390fd5b81816040517f177e802f000000000000000000000000000000000000000000000000000000008152600401613042929190614808565b60405180910390fd5b505050565b600080600090507a184f03e93ff9f4daa797ed6e38ed64bf6a1f01000000000000000083106130ae577a184f03e93ff9f4daa797ed6e38ed64bf6a1f01000000000000000083816130a4576130a3614501565b5b0492506040810190505b6d04ee2d6d415b85acef810000000083106130eb576d04ee2d6d415b85acef810000000083816130e1576130e0614501565b5b0492506020810190505b662386f26fc10000831061311a57662386f26fc1000083816131105761310f614501565b5b0492506010810190505b6305f5e1008310613143576305f5e100838161313957613138614501565b5b0492506008810190505b612710831061316857612710838161315e5761315d614501565b5b0492506004810190505b6064831061318b576064838161318157613180614501565b5b0492506002810190505b600a831061319a576001810190505b80915050919050565b60008073ffffffffffffffffffffffffffffffffffffffff168373ffffffffffffffffffffffffffffffffffffffff161415801561325b57508273ffffffffffffffffffffffffffffffffffffffff168473ffffffffffffffffffffffffffffffffffffffff16148061321c575061321b84846119d4565b5b8061325a57508273ffffffffffffffffffffffffffffffffffffffff16613242836121fb565b73ffffffffffffffffffffffffffffffffffffffff16145b5b90509392505050565b6040518061014001604052806060815260200160608152602001606081526020016060815260200160608152602001600015158152602001600015158152602001600015158152602001600081526020016000151581525090565b6000604051905090565b600080fd5b600080fd5b60007fffffffff0000000000000000000000000000000000000000000000000000000082169050919050565b613308816132d3565b811461331357600080fd5b50565b600081359050613325816132ff565b92915050565b600060208284031215613341576133406132c9565b5b600061334f84828501613316565b91505092915050565b60008115159050919050565b61336d81613358565b82525050565b60006020820190506133886000830184613364565b92915050565b600073ffffffffffffffffffffffffffffffffffffffff82169050919050565b60006133b98261338e565b9050919050565b6133c9816133ae565b81146133d457600080fd5b50565b6000813590506133e6816133c0565b92915050565b600060208284031215613402576134016132c9565b5b6000613410848285016133d7565b91505092915050565b600081519050919050565b600082825260208201905092915050565b6000819050602082019050919050565b6000819050919050565b61345881613445565b82525050565b600061346a838361344f565b60208301905092915050565b6000602082019050919050565b600061348e82613419565b6134988185613424565b93506134a383613435565b8060005b838110156134d45781516134bb888261345e565b97506134c683613476565b9250506001810190506134a7565b5085935050505092915050565b600060208201905081810360008301526134fb8184613483565b905092915050565b600081519050919050565b600082825260208201905092915050565b60005b8381101561353d578082015181840152602081019050613522565b60008484015250505050565b6000601f19601f8301169050919050565b600061356582613503565b61356f818561350e565b935061357f81856020860161351f565b61358881613549565b840191505092915050565b600060208201905081810360008301526135ad818461355a565b905092915050565b6135be81613445565b81146135c957600080fd5b50565b6000813590506135db816135b5565b92915050565b6000602082840312156135f7576135f66132c9565b5b6000613605848285016135cc565b91505092915050565b613617816133ae565b82525050565b6000602082019050613632600083018461360e565b92915050565b6000806040838503121561364f5761364e6132c9565b5b600061365d858286016133d7565b925050602061366e858286016135cc565b9150509250929050565b600080600060608486031215613691576136906132c9565b5b600061369f868287016133d7565b93505060206136b0868287016133d7565b92505060406136c1868287016135cc565b9150509250925092565b600080fd5b600080fd5b7f4e487b7100000000000000000000000000000000000000000000000000000000600052604160045260246000fd5b61370d82613549565b810181811067ffffffffffffffff8211171561372c5761372b6136d5565b5b80604052505050565b600061373f6132bf565b905061374b8282613704565b919050565b600067ffffffffffffffff82111561376b5761376a6136d5565b5b61377482613549565b9050602081019050919050565b82818337600083830152505050565b60006137a361379e84613750565b613735565b9050828152602081018484840111156137bf576137be6136d0565b5b6137ca848285613781565b509392505050565b600082601f8301126137e7576137e66136cb565b5b81356137f7848260208601613790565b91505092915050565b600080600080600060a0868803121561381c5761381b6132c9565b5b600086013567ffffffffffffffff81111561383a576138396132ce565b5b613846888289016137d2565b955050602086013567ffffffffffffffff811115613867576138666132ce565b5b613873888289016137d2565b945050604086013567ffffffffffffffff811115613894576138936132ce565b5b6138a0888289016137d2565b935050606086013567ffffffffffffffff8111156138c1576138c06132ce565b5b6138cd888289016137d2565b925050608086013567ffffffffffffffff8111156138ee576138ed6132ce565b5b6138fa888289016137d2565b9150509295509295909350565b61391081613445565b82525050565b600060208201905061392b6000830184613907565b92915050565b61393a81613358565b811461394557600080fd5b50565b60008135905061395781613931565b92915050565b60008060408385031215613974576139736132c9565b5b6000613982858286016135cc565b925050602061399385828601613948565b9150509250929050565b600080604083850312156139b4576139b36132c9565b5b60006139c2858286016133d7565b92505060206139d385828601613948565b9150509250929050565b600067ffffffffffffffff8211156139f8576139f76136d5565b5b613a0182613549565b9050602081019050919050565b6000613a21613a1c846139dd565b613735565b905082815260208101848484011115613a3d57613a3c6136d0565b5b613a48848285613781565b509392505050565b600082601f830112613a6557613a646136cb565b5b8135613a75848260208601613a0e565b91505092915050565b60008060008060808587031215613a9857613a976132c9565b5b6000613aa6878288016133d7565b9450506020613ab7878288016133d7565b9350506040613ac8878288016135cc565b925050606085013567ffffffffffffffff811115613ae957613ae86132ce565b5b613af587828801613a50565b91505092959194509250565b6000610140820190508181036000830152613b1c818d61355a565b90508181036020830152613b30818c61355a565b90508181036040830152613b44818b61355a565b90508181036060830152613b58818a61355a565b90508181036080830152613b6c818961355a565b9050613b7b60a0830188613364565b613b8860c0830187613364565b613b9560e0830186613364565b613ba3610100830185613907565b613bb1610120830184613364565b9b9a5050505050505050505050565b60008060408385031215613bd757613bd66132c9565b5b6000613be5858286016133d7565b9250506020613bf6858286016133d7565b9150509250929050565b60008060408385031215613c1757613c166132c9565b5b6000613c25858286016135cc565b9250506020613c36858286016135cc565b9150509250929050565b600082825260208201905092915050565b6000613c5c82613503565b613c668185613c40565b9350613c7681856020860161351f565b613c7f81613549565b840191505092915050565b613c9381613358565b82525050565b6000610140830160008301518482036000860152613cb78282613c51565b91505060208301518482036020860152613cd18282613c51565b91505060408301518482036040860152613ceb8282613c51565b91505060608301518482036060860152613d058282613c51565b91505060808301518482036080860152613d1f8282613c51565b91505060a0830151613d3460a0860182613c8a565b5060c0830151613d4760c0860182613c8a565b5060e0830151613d5a60e0860182613c8a565b50610100830151613d6f61010086018261344f565b50610120830151613d84610120860182613c8a565b508091505092915050565b60006020820190508181036000830152613da98184613c99565b905092915050565b7f4e487b7100000000000000000000000000000000000000000000000000000000600052602260045260246000fd5b60006002820490506001821680613df857607f821691505b602082108103613e0b57613e0a613db1565b5b50919050565b6000606082019050613e26600083018661360e565b613e336020830185613907565b613e40604083018461360e565b949350505050565b7f4e487b7100000000000000000000000000000000000000000000000000000000600052601160045260246000fd5b6000613e8282613445565b91507fffffffffffffffffffffffffffffffffffffffffffffffffffffffffffffffff8203613eb457613eb3613e48565b5b600182019050919050565b60008190508160005260206000209050919050565b60006020601f8301049050919050565b600082821b905092915050565b600060088302613f217fffffffffffffffffffffffffffffffffffffffffffffffffffffffffffffffff82613ee4565b613f2b8683613ee4565b95508019841693508086168417925050509392505050565b6000819050919050565b6000613f68613f63613f5e84613445565b613f43565b613445565b9050919050565b6000819050919050565b613f8283613f4d565b613f96613f8e82613f6f565b848454613ef1565b825550505050565b600090565b613fab613f9e565b613fb6818484613f79565b505050565b5b81811015613fda57613fcf600082613fa3565b600181019050613fbc565b5050565b601f82111561401f57613ff081613ebf565b613ff984613ed4565b81016020851015614008578190505b61401c61401485613ed4565b830182613fbb565b50505b505050565b600082821c905092915050565b600061404260001984600802614024565b1980831691505092915050565b600061405b8383614031565b9150826002028217905092915050565b61407482613503565b67ffffffffffffffff81111561408d5761408c6136d5565b5b6140978254613de0565b6140a2828285613fde565b600060209050601f8311600181146140d557600084156140c3578287015190505b6140cd858261404f565b865550614135565b601f1984166140e386613ebf565b60005b8281101561410b578489015182556001820191506020850194506020810190506140e6565b868310156141285784890151614124601f891682614031565b8355505b6001600288020188555050505b505050505050565b7f4e6f7420746865206f776e6572206f662074686973206c616e64000000000000600082015250565b6000614173601a8361350e565b915061417e8261413d565b602082019050919050565b600060208201905081810360008301526141a281614166565b9050919050565b7f4c616e64206e6f74207375727665796564000000000000000000000000000000600082015250565b60006141df60118361350e565b91506141ea826141a9565b602082019050919050565b6000602082019050818103600083015261420e816141d2565b9050919050565b7f4c616e6420616c7265616479206d696e74656400000000000000000000000000600082015250565b600061424b60138361350e565b915061425682614215565b602082019050919050565b6000602082019050818103600083015261427a8161423e565b9050919050565b600081905092915050565b7f4c524e46545f0000000000000000000000000000000000000000000000000000600082015250565b60006142c2600683614281565b91506142cd8261428c565b600682019050919050565b60006142e382613503565b6142ed8185614281565b93506142fd81856020860161351f565b80840191505092915050565b6000614314826142b5565b915061432082846142d8565b915081905092915050565b7f4c616e64206e6f74207265676973746572656400000000000000000000000000600082015250565b600061436160138361350e565b915061436c8261432b565b602082019050919050565b6000602082019050818103600083015261439081614354565b9050919050565b7f4c616e64206973206e6f7420666f722073616c65000000000000000000000000600082015250565b60006143cd60148361350e565b91506143d882614397565b602082019050919050565b600060208201905081810360008301526143fc816143c0565b9050919050565b7f4c616e64206e6f742072656769737465726564206f6e20626c6f636b6368616960008201527f6e00000000000000000000000000000000000000000000000000000000000000602082015250565b600061445f60218361350e565b915061446a82614403565b604082019050919050565b6000602082019050818103600083015261448e81614452565b9050919050565b7f496e73756666696369656e742066756e64730000000000000000000000000000600082015250565b60006144cb60128361350e565b91506144d682614495565b602082019050919050565b600060208201905081810360008301526144fa816144be565b9050919050565b7f4e487b7100000000000000000000000000000000000000000000000000000000600052601260045260246000fd5b600061453b82613445565b915061454683613445565b92508261455657614555614501565b5b828204905092915050565b600061456c82613445565b915061457783613445565b925082820190508082111561458f5761458e613e48565b5b92915050565b60006145a082613445565b91506145ab83613445565b92508282039050818111156145c3576145c2613e48565b5b92915050565b7f4e487b7100000000000000000000000000000000000000000000000000000000600052603260045260246000fd5b600061460482856142d8565b915061461082846142d8565b91508190509392505050565b7f4c616e6420697320616c726561647920666f722073616c650000000000000000600082015250565b600061465260188361350e565b915061465d8261461c565b602082019050919050565b6000602082019050818103600083015261468181614645565b9050919050565b7f5072696365206d7573742062652067726561746572207468616e207a65726f00600082015250565b60006146be601f8361350e565b91506146c982614688565b602082019050919050565b600060208201905081810360008301526146ed816146b1565b9050919050565b60006146ff82613445565b915061470a83613445565b92508261471a57614719614501565b5b828206905092915050565b600081519050919050565b600082825260208201905092915050565b600061474c82614725565b6147568185614730565b935061476681856020860161351f565b61476f81613549565b840191505092915050565b600060808201905061478f600083018761360e565b61479c602083018661360e565b6147a96040830185613907565b81810360608301526147bb8184614741565b905095945050505050565b6000815190506147d5816132ff565b92915050565b6000602082840312156147f1576147f06132c9565b5b60006147ff848285016147c6565b91505092915050565b600060408201905061481d600083018561360e565b61482a6020830184613907565b939250505056fea2646970667358221220d2686e8f76948093c0c2bbb82f4deca150d7f688b84896c98c78ca24648205c064736f6c63430008180033",
    "linkReferences": {},
    "deployedLinkReferences": {}
}